{
  "_format": "hh-sol-artifact-1",
  "contractName": "ChaosParimutuelMarket",
  "sourceName": "contracts/contracts/ChaosParimutuelMarket.sol",
  "abi": [
    {
      "inputs": [
        {
          "internalType": "contract IERC20",
          "name": "_usdc",
          "type": "address"
        },
        {
          "internalType": "address",
          "name": "_treasury",
          "type": "address"
        }
      ],
      "stateMutability": "nonpayable",
      "type": "constructor"
    },
    {
      "inputs": [
        {
          "internalType": "address",
          "name": "target",
          "type": "address"
        }
      ],
      "name": "AddressEmptyCode",
      "type": "error"
    },
    {
      "inputs": [
        {
          "internalType": "address",
          "name": "account",
          "type": "address"
        }
      ],
      "name": "AddressInsufficientBalance",
      "type": "error"
    },
    {
      "inputs": [],
      "name": "BadAmount",
      "type": "error"
    },
    {
      "inputs": [],
      "name": "BadMarket",
      "type": "error"
    },
    {
      "inputs": [],
      "name": "BadOutcome",
      "type": "error"
    },
    {
      "inputs": [],
      "name": "EnforcedPause",
      "type": "error"
    },
    {
      "inputs": [],
      "name": "ExpectedPause",
      "type": "error"
    },
    {
      "inputs": [],
      "name": "FailedInnerCall",
      "type": "error"
    },
    {
      "inputs": [],
      "name": "FeeTooHigh",
      "type": "error"
    },
    {
      "inputs": [],
      "name": "MathOverflowedMulDiv",
      "type": "error"
    },
    {
      "inputs": [],
      "name": "NoWinningStake",
      "type": "error"
    },
    {
      "inputs": [],
      "name": "NothingToClaim",
      "type": "error"
    },
    {
      "inputs": [],
      "name": "NothingToExit",
      "type": "error"
    },
    {
      "inputs": [
        {
          "internalType": "address",
          "name": "owner",
          "type": "address"
        }
      ],
      "name": "OwnableInvalidOwner",
      "type": "error"
    },
    {
      "inputs": [
        {
          "internalType": "address",
          "name": "account",
          "type": "address"
        }
      ],
      "name": "OwnableUnauthorizedAccount",
      "type": "error"
    },
    {
      "inputs": [],
      "name": "ReentrancyGuardReentrantCall",
      "type": "error"
    },
    {
      "inputs": [
        {
          "internalType": "address",
          "name": "token",
          "type": "address"
        }
      ],
      "name": "SafeERC20FailedOperation",
      "type": "error"
    },
    {
      "inputs": [],
      "name": "TradingClosed",
      "type": "error"
    },
    {
      "anonymous": false,
      "inputs": [
        {
          "indexed": true,
          "internalType": "address",
          "name": "user",
          "type": "address"
        },
        {
          "indexed": true,
          "internalType": "uint256",
          "name": "marketId",
          "type": "uint256"
        },
        {
          "indexed": false,
          "internalType": "uint256",
          "name": "outcomeIndex",
          "type": "uint256"
        },
        {
          "indexed": false,
          "internalType": "uint256",
          "name": "grossUsdc",
          "type": "uint256"
        },
        {
          "indexed": false,
          "internalType": "uint256",
          "name": "feeUsdc",
          "type": "uint256"
        },
        {
          "indexed": false,
          "internalType": "uint256",
          "name": "netUsdc",
          "type": "uint256"
        }
      ],
      "name": "BetPlaced",
      "type": "event"
    },
    {
      "anonymous": false,
      "inputs": [
        {
          "indexed": true,
          "internalType": "address",
          "name": "user",
          "type": "address"
        },
        {
          "indexed": true,
          "internalType": "uint256",
          "name": "marketId",
          "type": "uint256"
        },
        {
          "indexed": false,
          "internalType": "uint256",
          "name": "outcomeIndex",
          "type": "uint256"
        },
        {
          "indexed": false,
          "internalType": "uint256",
          "name": "amount",
          "type": "uint256"
        }
      ],
      "name": "Claimed",
      "type": "event"
    },
    {
      "anonymous": false,
      "inputs": [
        {
          "indexed": true,
          "internalType": "uint256",
          "name": "marketId",
          "type": "uint256"
        },
        {
          "indexed": false,
          "internalType": "uint64",
          "name": "closeTime",
          "type": "uint64"
        },
        {
          "indexed": false,
          "internalType": "uint16",
          "name": "feeBps",
          "type": "uint16"
        },
        {
          "indexed": false,
          "internalType": "uint8",
          "name": "outcomeCount",
          "type": "uint8"
        }
      ],
      "name": "MarketRegistered",
      "type": "event"
    },
    {
      "anonymous": false,
      "inputs": [
        {
          "indexed": true,
          "internalType": "uint256",
          "name": "marketId",
          "type": "uint256"
        },
        {
          "indexed": false,
          "internalType": "uint256",
          "name": "winningOutcomeIndex",
          "type": "uint256"
        }
      ],
      "name": "MarketResolved",
      "type": "event"
    },
    {
      "anonymous": false,
      "inputs": [
        {
          "indexed": true,
          "internalType": "address",
          "name": "previousOwner",
          "type": "address"
        },
        {
          "indexed": true,
          "internalType": "address",
          "name": "newOwner",
          "type": "address"
        }
      ],
      "name": "OwnershipTransferred",
      "type": "event"
    },
    {
      "anonymous": false,
      "inputs": [
        {
          "indexed": false,
          "internalType": "address",
          "name": "account",
          "type": "address"
        }
      ],
      "name": "Paused",
      "type": "event"
    },
    {
      "anonymous": false,
      "inputs": [
        {
          "indexed": true,
          "internalType": "address",
          "name": "user",
          "type": "address"
        },
        {
          "indexed": true,
          "internalType": "uint256",
          "name": "marketId",
          "type": "uint256"
        },
        {
          "indexed": false,
          "internalType": "uint256",
          "name": "outcomeIndex",
          "type": "uint256"
        },
        {
          "indexed": false,
          "internalType": "uint256",
          "name": "netUsdcReturned",
          "type": "uint256"
        }
      ],
      "name": "StakeExited",
      "type": "event"
    },
    {
      "anonymous": false,
      "inputs": [
        {
          "indexed": true,
          "internalType": "address",
          "name": "treasury",
          "type": "address"
        }
      ],
      "name": "TreasuryUpdated",
      "type": "event"
    },
    {
      "anonymous": false,
      "inputs": [
        {
          "indexed": false,
          "internalType": "address",
          "name": "account",
          "type": "address"
        }
      ],
      "name": "Unpaused",
      "type": "event"
    },
    {
      "inputs": [],
      "name": "MAX_OUTCOMES",
      "outputs": [
        {
          "internalType": "uint8",
          "name": "",
          "type": "uint8"
        }
      ],
      "stateMutability": "view",
      "type": "function"
    },
    {
      "inputs": [
        {
          "internalType": "uint256",
          "name": "marketId",
          "type": "uint256"
        },
        {
          "internalType": "uint256",
          "name": "outcomeIndex",
          "type": "uint256"
        },
        {
          "internalType": "uint256",
          "name": "grossUsdc",
          "type": "uint256"
        }
      ],
      "name": "bet",
      "outputs": [],
      "stateMutability": "nonpayable",
      "type": "function"
    },
    {
      "inputs": [
        {
          "internalType": "uint256",
          "name": "marketId",
          "type": "uint256"
        }
      ],
      "name": "claim",
      "outputs": [],
      "stateMutability": "nonpayable",
      "type": "function"
    },
    {
      "inputs": [
        {
          "internalType": "uint256",
          "name": "marketId",
          "type": "uint256"
        },
        {
          "internalType": "uint256",
          "name": "outcomeIndex",
          "type": "uint256"
        }
      ],
      "name": "exitStake",
      "outputs": [],
      "stateMutability": "nonpayable",
      "type": "function"
    },
    {
      "inputs": [
        {
          "internalType": "uint256",
          "name": "",
          "type": "uint256"
        }
      ],
      "name": "markets",
      "outputs": [
        {
          "internalType": "uint64",
          "name": "closeTime",
          "type": "uint64"
        },
        {
          "internalType": "uint16",
          "name": "feeBps",
          "type": "uint16"
        },
        {
          "internalType": "bool",
          "name": "active",
          "type": "bool"
        },
        {
          "internalType": "bool",
          "name": "resolved",
          "type": "bool"
        },
        {
          "internalType": "uint8",
          "name": "outcomeCount",
          "type": "uint8"
        },
        {
          "internalType": "uint256",
          "name": "winningOutcome",
          "type": "uint256"
        }
      ],
      "stateMutability": "view",
      "type": "function"
    },
    {
      "inputs": [],
      "name": "owner",
      "outputs": [
        {
          "internalType": "address",
          "name": "",
          "type": "address"
        }
      ],
      "stateMutability": "view",
      "type": "function"
    },
    {
      "inputs": [],
      "name": "pause",
      "outputs": [],
      "stateMutability": "nonpayable",
      "type": "function"
    },
    {
      "inputs": [],
      "name": "paused",
      "outputs": [
        {
          "internalType": "bool",
          "name": "",
          "type": "bool"
        }
      ],
      "stateMutability": "view",
      "type": "function"
    },
    {
      "inputs": [
        {
          "internalType": "uint256",
          "name": "marketId",
          "type": "uint256"
        },
        {
          "internalType": "uint64",
          "name": "closeTime",
          "type": "uint64"
        },
        {
          "internalType": "uint16",
          "name": "feeBps",
          "type": "uint16"
        },
        {
          "internalType": "uint8",
          "name": "outcomeCount",
          "type": "uint8"
        }
      ],
      "name": "registerMarket",
      "outputs": [],
      "stateMutability": "nonpayable",
      "type": "function"
    },
    {
      "inputs": [],
      "name": "renounceOwnership",
      "outputs": [],
      "stateMutability": "nonpayable",
      "type": "function"
    },
    {
      "inputs": [
        {
          "internalType": "uint256",
          "name": "marketId",
          "type": "uint256"
        },
        {
          "internalType": "uint256",
          "name": "winningOutcomeIndex",
          "type": "uint256"
        }
      ],
      "name": "resolveMarket",
      "outputs": [],
      "stateMutability": "nonpayable",
      "type": "function"
    },
    {
      "inputs": [
        {
          "internalType": "uint256",
          "name": "",
          "type": "uint256"
        }
      ],
      "name": "resolvedPoolSnapshot",
      "outputs": [
        {
          "internalType": "uint256",
          "name": "",
          "type": "uint256"
        }
      ],
      "stateMutability": "view",
      "type": "function"
    },
    {
      "inputs": [
        {
          "internalType": "uint256",
          "name": "",
          "type": "uint256"
        }
      ],
      "name": "resolvedWinningStakeSnapshot",
      "outputs": [
        {
          "internalType": "uint256",
          "name": "",
          "type": "uint256"
        }
      ],
      "stateMutability": "view",
      "type": "function"
    },
    {
      "inputs": [
        {
          "internalType": "address",
          "name": "_treasury",
          "type": "address"
        }
      ],
      "name": "setTreasury",
      "outputs": [],
      "stateMutability": "nonpayable",
      "type": "function"
    },
    {
      "inputs": [
        {
          "internalType": "uint256",
          "name": "",
          "type": "uint256"
        },
        {
          "internalType": "uint256",
          "name": "",
          "type": "uint256"
        },
        {
          "internalType": "address",
          "name": "",
          "type": "address"
        }
      ],
      "name": "stakeOf",
      "outputs": [
        {
          "internalType": "uint256",
          "name": "",
          "type": "uint256"
        }
      ],
      "stateMutability": "view",
      "type": "function"
    },
    {
      "inputs": [
        {
          "internalType": "uint256",
          "name": "",
          "type": "uint256"
        }
      ],
      "name": "totalPool",
      "outputs": [
        {
          "internalType": "uint256",
          "name": "",
          "type": "uint256"
        }
      ],
      "stateMutability": "view",
      "type": "function"
    },
    {
      "inputs": [
        {
          "internalType": "uint256",
          "name": "",
          "type": "uint256"
        },
        {
          "internalType": "uint256",
          "name": "",
          "type": "uint256"
        }
      ],
      "name": "totalStakeOnOutcome",
      "outputs": [
        {
          "internalType": "uint256",
          "name": "",
          "type": "uint256"
        }
      ],
      "stateMutability": "view",
      "type": "function"
    },
    {
      "inputs": [
        {
          "internalType": "address",
          "name": "newOwner",
          "type": "address"
        }
      ],
      "name": "transferOwnership",
      "outputs": [],
      "stateMutability": "nonpayable",
      "type": "function"
    },
    {
      "inputs": [],
      "name": "treasury",
      "outputs": [
        {
          "internalType": "address",
          "name": "",
          "type": "address"
        }
      ],
      "stateMutability": "view",
      "type": "function"
    },
    {
      "inputs": [],
      "name": "unpause",
      "outputs": [],
      "stateMutability": "nonpayable",
      "type": "function"
    },
    {
      "inputs": [],
      "name": "usdc",
      "outputs": [
        {
          "internalType": "contract IERC20",
          "name": "",
          "type": "address"
        }
      ],
      "stateMutability": "view",
      "type": "function"
    }
  ],
  "bytecode": "0x60a03461010a57601f6111da38819003918201601f19168301916001600160401b0383118484101761010f57808492604094855283398101031261010a5780516001600160a01b0391828216820361010a57602001519082821680920361010a5733156100f15760005460405193339082167f8be0079c531659141344cd1fd0a4f28419497f9722a3daafe3b4186f6b6457e0600080a36001600160a81b0319163360ff60a01b19161760005560018055608052600280546001600160a01b0319169190911790556110b49081610126823960805181818161053001528181610a1a01528181610b160152610c690152f35b604051631e4fbdf760e01b815260006004820152602490fd5b600080fd5b634e487b7160e01b600052604160045260246000fdfe60406080815260048036101561001457600080fd5b600091823560e01c8063148a398d14610b69578063379607f514610a495780633e413bee14610a055780633f4ba83a146109975780634ec76cd51461096b5780635c975abb14610946578063605573331461084957806361d027b31461082057806365ce1372146107f8578063715018a61461079e5780638456cb591461073f5780638da5cb5b14610717578063b1283e77146106a7578063bfc5482214610475578063c8aa535914610420578063d1f8774b146103f8578063dc73d164146103d8578063e310c668146103b0578063f0f4426014610345578063f2fde38b146102be5763fde43ae61461010757600080fd5b346102ba5760803660031901126102ba578135916024359167ffffffffffffffff918284168094036102b6576044359061ffff82168092036102b2576064359360ff85168095036102ae5761015a610d0b565b841580156102a5575b61029657868852600360205260ff8489205460501c16610287576107d083116102785783519160c083019083821083831117610265575091600188606097959387957fcefdd67fa9c983c49efc5ad6ff873ebf0f3da37414be8fd0775834cd4e1692439a98528784528b60208501918683528786018581528b8701918383528960808901948c865260a08a01976000198952815260036020522097511669ffff0000000000000000885495518b1b169160ff60501b9051151560501b169260ff60581b9051151560581b169360ff8e1b90518e1b16946cffffffffffffffffffffffffff1916171717171783555191015581519384526020840152820152a280f35b634e487b7160e01b8a5260419052602489fd5b50825163cd4e616760e01b8152fd5b5082516357cb452560e01b8152fd5b50825163900d8abd60e01b8152fd5b50838511610163565b8780fd5b8680fd5b8580fd5b8280fd5b5090346102ba5760203660031901126102ba576102d9610cf5565b906102e2610d0b565b6001600160a01b0391821692831561032f57505082546001600160a01b0319811683178455167f8be0079c531659141344cd1fd0a4f28419497f9722a3daafe3b4186f6b6457e08380a380f35b51631e4fbdf760e01b8152908101849052602490fd5b83346103ad5760203660031901126103ad5761035f610cf5565b610367610d0b565b600280546001600160a01b0319166001600160a01b039290921691821790557f7dae230f18360d76a040c81f050aa14eb9d6dc7901b20fc5d855e2a20fe814d18280a280f35b80fd5b5090346102ba5760203660031901126102ba5760209282913581526007845220549051908152f35b8382346103f457816003193601126103f4578060209151908152f35b5080fd5b5090346102ba5760203660031901126102ba5760209282913581526006845220549051908152f35b5090346102ba5760603660031901126102ba576044356001600160a01b0381169190829003610471579282916020943582526005855282822060243583528552828220908252845220549051908152f35b8380fd5b5090346102ba5760603660031901126102ba57803591602435916044359161049b610f46565b6104a3610d37565b84865260209260038452818720549360ff8560501c1615801561069a575b61068b5767ffffffffffffffff9485811642101561067b5760ff8160601c1687101561066b57821561065b5761ffff6104fd91851c1683610f69565b936105088584610d58565b84516323b872dd60e01b848201523360248201523060448201526064808201869052815290967f0000000000000000000000000000000000000000000000000000000000000000919060a082019081118282101761064857865261056c9082610df0565b8580151580610634575b610615575b505087895260058252838920878a528252838920338a5282528389206105a2878254610d7b565b9055878952815282882086895281528288206105bf868254610d7b565b9055868852600681528288206105d6868254610d7b565b9055825195865285015283015260608201527fce4169502e4ec788f06e096a7c876ac9e3c1102bdc6cb2089a3b41e0a7f5945060803392a36001805580f35b60025461062d926001600160a01b0390911690610d88565b388561057b565b506002546001600160a01b03161515610576565b634e487b7160e01b8c526041845260248cfd5b5050505163749b593960e01b8152fd5b5050505163900d8abd60e01b8152fd5b5050505163e2c865df60e01b8152fd5b5050516357cb452560e01b8152fd5b5060ff8560581c166104c1565b5090346102ba5760203660031901126102ba5760c092829135815260036020522060ff600182549201549183519367ffffffffffffffff8216855261ffff82821c166020860152828260501c16151590850152818160581c161515606085015260601c16608083015260a0820152f35b8382346103f457816003193601126103f457905490516001600160a01b039091168152602090f35b8382346103f457816003193601126103f45760207f62e78cea01bee320cd4e420270b5ea74000d11b0c9f74754ebdbfc544b05a2589161077d610d0b565b610785610d37565b835460ff60a01b1916600160a01b17845551338152a180f35b83346103ad57806003193601126103ad576107b7610d0b565b80546001600160a01b03198116825581906001600160a01b03167f8be0079c531659141344cd1fd0a4f28419497f9722a3daafe3b4186f6b6457e08280a380f35b5090346102ba5760203660031901126102ba5760209282913581526008845220549051908152f35b8382346103f457816003193601126103f45760025490516001600160a01b039091168152602090f35b508290346103f45761085a36610cda565b610865929192610d0b565b8284526020916003835280852095865460ff8160501c16158015610939575b61092a5760ff8160601c1684101561091b5785875260068552828720549082865283882085895286528388205492831561090d575060017f6dfc24f0f2fb42e49fb4fa3ffa8abb148cab908a1fb8335b3f128a08b2594af197989986928260581b9060ff60581b191617815501558688526007855282882055600884528187205551908152a280f35b84516342edd2e160e11b8152fd5b50905163900d8abd60e01b8152fd5b5090516357cb452560e01b8152fd5b5060ff8160581c16610884565b8382346103f457816003193601126103f45760ff6020925460a01c1690519015158152f35b5090346102ba57602092829161098036610cda565b919083528552828220908252845220549051908152f35b5090346102ba57826003193601126102ba576109b1610d0b565b82549060ff8260a01c16156109f7575060ff60a01b19168255513381527f5db9ee0a495bf2e6ff9c91a7834c1ba4fdd244a5e8aa4e537bd38aeae4b073aa90602090a180f35b8251638dfc202b60e01b8152fd5b8382346103f457816003193601126103f457517f00000000000000000000000000000000000000000000000000000000000000006001600160a01b03168152602090f35b5090346102ba576020918260031936011261047157813592610a69610f46565b83855260038152818520805460ff8160501c1615908115610b5a575b5061068b576001015492848652600582528286208487528252828620338752825282862054908115610b4c575090610af27f9cdcf2f7714cca3508c7f0110b04a90a80a3a8dd0e35de99689db74d28c5383e93928688526007835283882054600884528489205491610fe4565b9085875260058152828720858852815282872033885281528683812055610b3a82337f0000000000000000000000000000000000000000000000000000000000000000610d88565b82519485528401523392a36001805580f35b83516312d37ee560e31b8152fd5b60ff915060581c161538610a85565b508290346103f457610b7a36610cda565b9091610b84610f46565b610b8c610d37565b8284526020600381528185205460ff8160501c16158015610ccd575b610cbd5767ffffffffffffffff8116421015610cad5760601c60ff16831015610c9d57838552600581528185208386528152818520338652815281852054908115610c8d578596857f605c5436749dee9182b13cd6e9161148ea548a93204ebca5a0a4f31b4b61555b959697526005825283882086895282528388203389528252878481205586885281528287208588528152828720610c49838254610d58565b905585875260068152828720610c60838254610d58565b9055610b3a82337f0000000000000000000000000000000000000000000000000000000000000000610d88565b825163250f90c760e21b81528790fd5b815163900d8abd60e01b81528690fd5b825163e2c865df60e01b81528790fd5b82516357cb452560e01b81528790fd5b5060ff8160581c16610ba8565b6040906003190112610cf0576004359060243590565b600080fd5b600435906001600160a01b0382168203610cf057565b6000546001600160a01b03163303610d1f57565b60405163118cdaa760e01b8152336004820152602490fd5b60ff60005460a01c16610d4657565b60405163d93c066560e01b8152600490fd5b91908203918211610d6557565b634e487b7160e01b600052601160045260246000fd5b91908201809211610d6557565b60405163a9059cbb60e01b60208201526001600160a01b039092166024830152604480830193909352918152608081019167ffffffffffffffff831182841017610dda57610dd892604052610df0565b565b634e487b7160e01b600052604160045260246000fd5b60018060a01b031690600080826020829451910182865af13d15610ed75767ffffffffffffffff903d828111610ec35760405192601f8201601f19908116603f0116840190811184821017610eaf576040528252610e5791903d84602084013e5b84610ee3565b908151918215159283610e87575b505050610e6f5750565b60249060405190635274afe760e01b82526004820152fd5b8192935090602091810103126103f45760200151908115918215036103ad5750388080610e65565b634e487b7160e01b85526041600452602485fd5b634e487b7160e01b84526041600452602484fd5b610e5790606090610e51565b90610f0a5750805115610ef857805190602001fd5b604051630a12f52160e11b8152600490fd5b81511580610f3d575b610f1b575090565b604051639996b31560e01b81526001600160a01b039091166004820152602490fd5b50803b15610f13565b600260015414610f57576002600155565b604051633ee5aeb560e01b8152600490fd5b908082029060001981840990828083109203918083039214610fd9576127109082821115610fc7577fbc01a36e2eb1c432ca57a786c226809d495182a9930be0ded288ce703afb7e91940990828211900360fc1b910360041c170290565b60405163227bc15360e01b8152600490fd5b505061271091500490565b9091828202916000198482099383808610950394808603951461105a5784831115610fc75782910981600003821680920460028082600302188083028203028083028203028083028203028083028203028083028203028092029003029360018380600003040190848311900302920304170290565b505080925015611068570490565b634e487b7160e01b600052601260045260246000fdfea2646970667358221220eb4556190c9dd2ebf0b19459d0121b85622fd63b94575a23b950fc1ba9fdbe3964736f6c63430008140033",
  "linkReferences": {},
  "deployedLinkReferences": {}
}