{
  "_format": "hh-sol-artifact-1",
  "contractName": "ChaosParimutuelMarket",
  "sourceName": "contracts/contracts/ChaosParimutuelMarket.sol",
  "abi": [
    {
      "inputs": [
        {
          "internalType": "contract IERC20",
          "name": "_usdc",
          "type": "address"
        },
        {
          "internalType": "address",
          "name": "_treasury",
          "type": "address"
        }
      ],
      "stateMutability": "nonpayable",
      "type": "constructor"
    },
    {
      "inputs": [
        {
          "internalType": "address",
          "name": "target",
          "type": "address"
        }
      ],
      "name": "AddressEmptyCode",
      "type": "error"
    },
    {
      "inputs": [
        {
          "internalType": "address",
          "name": "account",
          "type": "address"
        }
      ],
      "name": "AddressInsufficientBalance",
      "type": "error"
    },
    {
      "inputs": [],
      "name": "BadAmount",
      "type": "error"
    },
    {
      "inputs": [],
      "name": "BadMarket",
      "type": "error"
    },
    {
      "inputs": [],
      "name": "BadOutcome",
      "type": "error"
    },
    {
      "inputs": [],
      "name": "EnforcedPause",
      "type": "error"
    },
    {
      "inputs": [],
      "name": "ExpectedPause",
      "type": "error"
    },
    {
      "inputs": [],
      "name": "FailedInnerCall",
      "type": "error"
    },
    {
      "inputs": [],
      "name": "FeeTooHigh",
      "type": "error"
    },
    {
      "inputs": [],
      "name": "MathOverflowedMulDiv",
      "type": "error"
    },
    {
      "inputs": [],
      "name": "NoWinningStake",
      "type": "error"
    },
    {
      "inputs": [],
      "name": "NothingToClaim",
      "type": "error"
    },
    {
      "inputs": [
        {
          "internalType": "address",
          "name": "owner",
          "type": "address"
        }
      ],
      "name": "OwnableInvalidOwner",
      "type": "error"
    },
    {
      "inputs": [
        {
          "internalType": "address",
          "name": "account",
          "type": "address"
        }
      ],
      "name": "OwnableUnauthorizedAccount",
      "type": "error"
    },
    {
      "inputs": [],
      "name": "ReentrancyGuardReentrantCall",
      "type": "error"
    },
    {
      "inputs": [
        {
          "internalType": "address",
          "name": "token",
          "type": "address"
        }
      ],
      "name": "SafeERC20FailedOperation",
      "type": "error"
    },
    {
      "inputs": [],
      "name": "TradingClosed",
      "type": "error"
    },
    {
      "anonymous": false,
      "inputs": [
        {
          "indexed": true,
          "internalType": "address",
          "name": "user",
          "type": "address"
        },
        {
          "indexed": true,
          "internalType": "uint256",
          "name": "marketId",
          "type": "uint256"
        },
        {
          "indexed": false,
          "internalType": "uint256",
          "name": "outcomeIndex",
          "type": "uint256"
        },
        {
          "indexed": false,
          "internalType": "uint256",
          "name": "grossUsdc",
          "type": "uint256"
        },
        {
          "indexed": false,
          "internalType": "uint256",
          "name": "feeUsdc",
          "type": "uint256"
        },
        {
          "indexed": false,
          "internalType": "uint256",
          "name": "netUsdc",
          "type": "uint256"
        }
      ],
      "name": "BetPlaced",
      "type": "event"
    },
    {
      "anonymous": false,
      "inputs": [
        {
          "indexed": true,
          "internalType": "address",
          "name": "user",
          "type": "address"
        },
        {
          "indexed": true,
          "internalType": "uint256",
          "name": "marketId",
          "type": "uint256"
        },
        {
          "indexed": false,
          "internalType": "uint256",
          "name": "outcomeIndex",
          "type": "uint256"
        },
        {
          "indexed": false,
          "internalType": "uint256",
          "name": "amount",
          "type": "uint256"
        }
      ],
      "name": "Claimed",
      "type": "event"
    },
    {
      "anonymous": false,
      "inputs": [
        {
          "indexed": true,
          "internalType": "uint256",
          "name": "marketId",
          "type": "uint256"
        },
        {
          "indexed": false,
          "internalType": "uint64",
          "name": "closeTime",
          "type": "uint64"
        },
        {
          "indexed": false,
          "internalType": "uint16",
          "name": "feeBps",
          "type": "uint16"
        },
        {
          "indexed": false,
          "internalType": "uint8",
          "name": "outcomeCount",
          "type": "uint8"
        }
      ],
      "name": "MarketRegistered",
      "type": "event"
    },
    {
      "anonymous": false,
      "inputs": [
        {
          "indexed": true,
          "internalType": "uint256",
          "name": "marketId",
          "type": "uint256"
        },
        {
          "indexed": false,
          "internalType": "uint256",
          "name": "winningOutcomeIndex",
          "type": "uint256"
        }
      ],
      "name": "MarketResolved",
      "type": "event"
    },
    {
      "anonymous": false,
      "inputs": [
        {
          "indexed": true,
          "internalType": "address",
          "name": "previousOwner",
          "type": "address"
        },
        {
          "indexed": true,
          "internalType": "address",
          "name": "newOwner",
          "type": "address"
        }
      ],
      "name": "OwnershipTransferred",
      "type": "event"
    },
    {
      "anonymous": false,
      "inputs": [
        {
          "indexed": false,
          "internalType": "address",
          "name": "account",
          "type": "address"
        }
      ],
      "name": "Paused",
      "type": "event"
    },
    {
      "anonymous": false,
      "inputs": [
        {
          "indexed": true,
          "internalType": "address",
          "name": "treasury",
          "type": "address"
        }
      ],
      "name": "TreasuryUpdated",
      "type": "event"
    },
    {
      "anonymous": false,
      "inputs": [
        {
          "indexed": false,
          "internalType": "address",
          "name": "account",
          "type": "address"
        }
      ],
      "name": "Unpaused",
      "type": "event"
    },
    {
      "inputs": [],
      "name": "MAX_OUTCOMES",
      "outputs": [
        {
          "internalType": "uint8",
          "name": "",
          "type": "uint8"
        }
      ],
      "stateMutability": "view",
      "type": "function"
    },
    {
      "inputs": [
        {
          "internalType": "uint256",
          "name": "marketId",
          "type": "uint256"
        },
        {
          "internalType": "uint256",
          "name": "outcomeIndex",
          "type": "uint256"
        },
        {
          "internalType": "uint256",
          "name": "grossUsdc",
          "type": "uint256"
        }
      ],
      "name": "bet",
      "outputs": [],
      "stateMutability": "nonpayable",
      "type": "function"
    },
    {
      "inputs": [
        {
          "internalType": "uint256",
          "name": "marketId",
          "type": "uint256"
        }
      ],
      "name": "claim",
      "outputs": [],
      "stateMutability": "nonpayable",
      "type": "function"
    },
    {
      "inputs": [
        {
          "internalType": "uint256",
          "name": "",
          "type": "uint256"
        }
      ],
      "name": "markets",
      "outputs": [
        {
          "internalType": "uint64",
          "name": "closeTime",
          "type": "uint64"
        },
        {
          "internalType": "uint16",
          "name": "feeBps",
          "type": "uint16"
        },
        {
          "internalType": "bool",
          "name": "active",
          "type": "bool"
        },
        {
          "internalType": "bool",
          "name": "resolved",
          "type": "bool"
        },
        {
          "internalType": "uint8",
          "name": "outcomeCount",
          "type": "uint8"
        },
        {
          "internalType": "uint256",
          "name": "winningOutcome",
          "type": "uint256"
        }
      ],
      "stateMutability": "view",
      "type": "function"
    },
    {
      "inputs": [],
      "name": "owner",
      "outputs": [
        {
          "internalType": "address",
          "name": "",
          "type": "address"
        }
      ],
      "stateMutability": "view",
      "type": "function"
    },
    {
      "inputs": [],
      "name": "pause",
      "outputs": [],
      "stateMutability": "nonpayable",
      "type": "function"
    },
    {
      "inputs": [],
      "name": "paused",
      "outputs": [
        {
          "internalType": "bool",
          "name": "",
          "type": "bool"
        }
      ],
      "stateMutability": "view",
      "type": "function"
    },
    {
      "inputs": [
        {
          "internalType": "uint256",
          "name": "marketId",
          "type": "uint256"
        },
        {
          "internalType": "uint64",
          "name": "closeTime",
          "type": "uint64"
        },
        {
          "internalType": "uint16",
          "name": "feeBps",
          "type": "uint16"
        },
        {
          "internalType": "uint8",
          "name": "outcomeCount",
          "type": "uint8"
        }
      ],
      "name": "registerMarket",
      "outputs": [],
      "stateMutability": "nonpayable",
      "type": "function"
    },
    {
      "inputs": [],
      "name": "renounceOwnership",
      "outputs": [],
      "stateMutability": "nonpayable",
      "type": "function"
    },
    {
      "inputs": [
        {
          "internalType": "uint256",
          "name": "marketId",
          "type": "uint256"
        },
        {
          "internalType": "uint256",
          "name": "winningOutcomeIndex",
          "type": "uint256"
        }
      ],
      "name": "resolveMarket",
      "outputs": [],
      "stateMutability": "nonpayable",
      "type": "function"
    },
    {
      "inputs": [
        {
          "internalType": "uint256",
          "name": "",
          "type": "uint256"
        }
      ],
      "name": "resolvedPoolSnapshot",
      "outputs": [
        {
          "internalType": "uint256",
          "name": "",
          "type": "uint256"
        }
      ],
      "stateMutability": "view",
      "type": "function"
    },
    {
      "inputs": [
        {
          "internalType": "uint256",
          "name": "",
          "type": "uint256"
        }
      ],
      "name": "resolvedWinningStakeSnapshot",
      "outputs": [
        {
          "internalType": "uint256",
          "name": "",
          "type": "uint256"
        }
      ],
      "stateMutability": "view",
      "type": "function"
    },
    {
      "inputs": [
        {
          "internalType": "address",
          "name": "_treasury",
          "type": "address"
        }
      ],
      "name": "setTreasury",
      "outputs": [],
      "stateMutability": "nonpayable",
      "type": "function"
    },
    {
      "inputs": [
        {
          "internalType": "uint256",
          "name": "",
          "type": "uint256"
        },
        {
          "internalType": "uint256",
          "name": "",
          "type": "uint256"
        },
        {
          "internalType": "address",
          "name": "",
          "type": "address"
        }
      ],
      "name": "stakeOf",
      "outputs": [
        {
          "internalType": "uint256",
          "name": "",
          "type": "uint256"
        }
      ],
      "stateMutability": "view",
      "type": "function"
    },
    {
      "inputs": [
        {
          "internalType": "uint256",
          "name": "",
          "type": "uint256"
        }
      ],
      "name": "totalPool",
      "outputs": [
        {
          "internalType": "uint256",
          "name": "",
          "type": "uint256"
        }
      ],
      "stateMutability": "view",
      "type": "function"
    },
    {
      "inputs": [
        {
          "internalType": "uint256",
          "name": "",
          "type": "uint256"
        },
        {
          "internalType": "uint256",
          "name": "",
          "type": "uint256"
        }
      ],
      "name": "totalStakeOnOutcome",
      "outputs": [
        {
          "internalType": "uint256",
          "name": "",
          "type": "uint256"
        }
      ],
      "stateMutability": "view",
      "type": "function"
    },
    {
      "inputs": [
        {
          "internalType": "address",
          "name": "newOwner",
          "type": "address"
        }
      ],
      "name": "transferOwnership",
      "outputs": [],
      "stateMutability": "nonpayable",
      "type": "function"
    },
    {
      "inputs": [],
      "name": "treasury",
      "outputs": [
        {
          "internalType": "address",
          "name": "",
          "type": "address"
        }
      ],
      "stateMutability": "view",
      "type": "function"
    },
    {
      "inputs": [],
      "name": "unpause",
      "outputs": [],
      "stateMutability": "nonpayable",
      "type": "function"
    },
    {
      "inputs": [],
      "name": "usdc",
      "outputs": [
        {
          "internalType": "contract IERC20",
          "name": "",
          "type": "address"
        }
      ],
      "stateMutability": "view",
      "type": "function"
    }
  ],
  "bytecode": "0x60a03461010357601f61105b38819003918201601f19168301916001600160401b038311848410176101085780849260409485528339810103126101035780516001600160a01b039182821682036101035760200151908282168092036101035733156100ea5760005460405193339082167f8be0079c531659141344cd1fd0a4f28419497f9722a3daafe3b4186f6b6457e0600080a36001600160a81b0319163360ff60a01b19161760005560018055608052600280546001600160a01b031916919091179055610f3c908161011f823960805181818161052401528181610a200152610b1c0152f35b604051631e4fbdf760e01b815260006004820152602490fd5b600080fd5b634e487b7160e01b600052604160045260246000fdfe60406080815260048036101561001457600080fd5b600091823560e01c8063379607f514610a4f5780633e413bee14610a0b5780633f4ba83a1461099d5780634ec76cd5146109715780635c975abb1461094c578063605573331461084f57806361d027b31461082657806365ce1372146107fe578063715018a6146107a45780638456cb59146107455780638da5cb5b1461071d578063b1283e77146106ad578063bfc548221461046a578063c8aa535914610415578063d1f8774b146103ed578063dc73d164146103cd578063e310c668146103a5578063f0f442601461033a578063f2fde38b146102b35763fde43ae6146100fc57600080fd5b346102af5760803660031901126102af578135916024359167ffffffffffffffff918284168094036102ab576044359061ffff82168092036102a7576064359360ff85168095036102a35761014f610ba0565b8415801561029a575b61028b57868852600360205260ff8489205460501c1661027c576107d0831161026d5783519160c08301908382108383111761025a575091600188606097959387957fcefdd67fa9c983c49efc5ad6ff873ebf0f3da37414be8fd0775834cd4e1692439a98528784528b60208501918683528786018581528b8701918383528960808901948c865260a08a01976000198952815260036020522097511669ffff0000000000000000885495518b1b169160ff60501b9051151560501b169260ff60581b9051151560581b169360ff8e1b90518e1b16946cffffffffffffffffffffffffff1916171717171783555191015581519384526020840152820152a280f35b634e487b7160e01b8a5260419052602489fd5b50825163cd4e616760e01b8152fd5b5082516357cb452560e01b8152fd5b50825163900d8abd60e01b8152fd5b50838511610158565b8780fd5b8680fd5b8580fd5b8280fd5b5090346102af5760203660031901126102af576102ce610b8a565b906102d7610ba0565b6001600160a01b0391821692831561032457505082546001600160a01b0319811683178455167f8be0079c531659141344cd1fd0a4f28419497f9722a3daafe3b4186f6b6457e08380a380f35b51631e4fbdf760e01b8152908101849052602490fd5b83346103a25760203660031901126103a257610354610b8a565b61035c610ba0565b600280546001600160a01b0319166001600160a01b039290921691821790557f7dae230f18360d76a040c81f050aa14eb9d6dc7901b20fc5d855e2a20fe814d18280a280f35b80fd5b5090346102af5760203660031901126102af5760209282913581526007845220549051908152f35b8382346103e957816003193601126103e9578060209151908152f35b5080fd5b5090346102af5760203660031901126102af5760209282913581526006845220549051908152f35b5090346102af5760603660031901126102af576044356001600160a01b0381169190829003610466579282916020943582526005855282822060243583528552828220908252845220549051908152f35b8380fd5b5090346102af5760603660031901126102af578035916024359160443591610490610dce565b610498610bcc565b84865260209260038452818720549360ff8560501c161580156106a0575b6106915767ffffffffffffffff948581164210156106815760ff8160601c168710156106715782156106615761ffff6104f291851c1683610df1565b938483039583871161064e5784516323b872dd60e01b84820152336024820152306044820152606480820186905281527f00000000000000000000000000000000000000000000000000000000000000009160a082019081118282101761063b57865261055f9082610c78565b8580151580610627575b610608575b505087895260058252838920878a528252838920338a528252838920610595878254610bed565b9055878952815282882086895281528288206105b2868254610bed565b9055868852600681528288206105c9868254610bed565b9055825195865285015283015260608201527fce4169502e4ec788f06e096a7c876ac9e3c1102bdc6cb2089a3b41e0a7f5945060803392a36001805580f35b600254610620926001600160a01b0390911690610c10565b388561056e565b506002546001600160a01b03161515610569565b634e487b7160e01b8c526041845260248cfd5b634e487b7160e01b8a526011825260248afd5b5050505163749b593960e01b8152fd5b5050505163900d8abd60e01b8152fd5b5050505163e2c865df60e01b8152fd5b5050516357cb452560e01b8152fd5b5060ff8560581c166104b6565b5090346102af5760203660031901126102af5760c092829135815260036020522060ff600182549201549183519367ffffffffffffffff8216855261ffff82821c166020860152828260501c16151590850152818160581c161515606085015260601c16608083015260a0820152f35b8382346103e957816003193601126103e957905490516001600160a01b039091168152602090f35b8382346103e957816003193601126103e95760207f62e78cea01bee320cd4e420270b5ea74000d11b0c9f74754ebdbfc544b05a25891610783610ba0565b61078b610bcc565b835460ff60a01b1916600160a01b17845551338152a180f35b83346103a257806003193601126103a2576107bd610ba0565b80546001600160a01b03198116825581906001600160a01b03167f8be0079c531659141344cd1fd0a4f28419497f9722a3daafe3b4186f6b6457e08280a380f35b5090346102af5760203660031901126102af5760209282913581526008845220549051908152f35b8382346103e957816003193601126103e95760025490516001600160a01b039091168152602090f35b508290346103e95761086036610b6f565b61086b929192610ba0565b8284526020916003835280852095865460ff8160501c1615801561093f575b6109305760ff8160601c1684101561092157858752600685528287205490828652838820858952865283882054928315610913575060017f6dfc24f0f2fb42e49fb4fa3ffa8abb148cab908a1fb8335b3f128a08b2594af197989986928260581b9060ff60581b191617815501558688526007855282882055600884528187205551908152a280f35b84516342edd2e160e11b8152fd5b50905163900d8abd60e01b8152fd5b5090516357cb452560e01b8152fd5b5060ff8160581c1661088a565b8382346103e957816003193601126103e95760ff6020925460a01c1690519015158152f35b5090346102af57602092829161098636610b6f565b919083528552828220908252845220549051908152f35b5090346102af57826003193601126102af576109b7610ba0565b82549060ff8260a01c16156109fd575060ff60a01b19168255513381527f5db9ee0a495bf2e6ff9c91a7834c1ba4fdd244a5e8aa4e537bd38aeae4b073aa90602090a180f35b8251638dfc202b60e01b8152fd5b8382346103e957816003193601126103e957517f00000000000000000000000000000000000000000000000000000000000000006001600160a01b03168152602090f35b5090346102af576020918260031936011261046657813592610a6f610dce565b83855260038152818520805460ff8160501c1615908115610b60575b50610691576001015492848652600582528286208487528252828620338752825282862054908115610b52575090610af87f9cdcf2f7714cca3508c7f0110b04a90a80a3a8dd0e35de99689db74d28c5383e93928688526007835283882054600884528489205491610e6c565b9085875260058152828720858852815282872033885281528683812055610b4082337f0000000000000000000000000000000000000000000000000000000000000000610c10565b82519485528401523392a36001805580f35b83516312d37ee560e31b8152fd5b60ff915060581c161538610a8b565b6040906003190112610b85576004359060243590565b600080fd5b600435906001600160a01b0382168203610b8557565b6000546001600160a01b03163303610bb457565b60405163118cdaa760e01b8152336004820152602490fd5b60ff60005460a01c16610bdb57565b60405163d93c066560e01b8152600490fd5b91908201809211610bfa57565b634e487b7160e01b600052601160045260246000fd5b60405163a9059cbb60e01b60208201526001600160a01b039092166024830152604480830193909352918152608081019167ffffffffffffffff831182841017610c6257610c6092604052610c78565b565b634e487b7160e01b600052604160045260246000fd5b60018060a01b031690600080826020829451910182865af13d15610d5f5767ffffffffffffffff903d828111610d4b5760405192601f8201601f19908116603f0116840190811184821017610d37576040528252610cdf91903d84602084013e5b84610d6b565b908151918215159283610d0f575b505050610cf75750565b60249060405190635274afe760e01b82526004820152fd5b8192935090602091810103126103e95760200151908115918215036103a25750388080610ced565b634e487b7160e01b85526041600452602485fd5b634e487b7160e01b84526041600452602484fd5b610cdf90606090610cd9565b90610d925750805115610d8057805190602001fd5b604051630a12f52160e11b8152600490fd5b81511580610dc5575b610da3575090565b604051639996b31560e01b81526001600160a01b039091166004820152602490fd5b50803b15610d9b565b600260015414610ddf576002600155565b604051633ee5aeb560e01b8152600490fd5b908082029060001981840990828083109203918083039214610e61576127109082821115610e4f577fbc01a36e2eb1c432ca57a786c226809d495182a9930be0ded288ce703afb7e91940990828211900360fc1b910360041c170290565b60405163227bc15360e01b8152600490fd5b505061271091500490565b90918282029160001984820993838086109503948086039514610ee25784831115610e4f5782910981600003821680920460028082600302188083028203028083028203028083028203028083028203028083028203028092029003029360018380600003040190848311900302920304170290565b505080925015610ef0570490565b634e487b7160e01b600052601260045260246000fdfea264697066735822122052661f891f0e8aa431c1125d44ef0d439826c1e7913b3f95de5b7552174e3f8e64736f6c63430008140033",
  "linkReferences": {},
  "deployedLinkReferences": {}
}