{
  "_format": "hh-sol-artifact-1",
  "contractName": "ChaosPredictionMarket",
  "sourceName": "contracts/contracts/ChaosPredictionMarket.sol",
  "abi": [
    {
      "inputs": [
        {
          "internalType": "contract IERC20",
          "name": "_usdc",
          "type": "address"
        },
        {
          "internalType": "address",
          "name": "_treasury",
          "type": "address"
        }
      ],
      "stateMutability": "nonpayable",
      "type": "constructor"
    },
    {
      "inputs": [
        {
          "internalType": "address",
          "name": "target",
          "type": "address"
        }
      ],
      "name": "AddressEmptyCode",
      "type": "error"
    },
    {
      "inputs": [
        {
          "internalType": "address",
          "name": "account",
          "type": "address"
        }
      ],
      "name": "AddressInsufficientBalance",
      "type": "error"
    },
    {
      "inputs": [],
      "name": "BadAmount",
      "type": "error"
    },
    {
      "inputs": [],
      "name": "BadMarket",
      "type": "error"
    },
    {
      "inputs": [],
      "name": "BadOutcome",
      "type": "error"
    },
    {
      "inputs": [],
      "name": "BadSide",
      "type": "error"
    },
    {
      "inputs": [],
      "name": "EnforcedPause",
      "type": "error"
    },
    {
      "inputs": [],
      "name": "ExpectedPause",
      "type": "error"
    },
    {
      "inputs": [],
      "name": "FailedInnerCall",
      "type": "error"
    },
    {
      "inputs": [],
      "name": "FeeTooHigh",
      "type": "error"
    },
    {
      "inputs": [],
      "name": "InsufficientShares",
      "type": "error"
    },
    {
      "inputs": [],
      "name": "MathOverflowedMulDiv",
      "type": "error"
    },
    {
      "inputs": [
        {
          "internalType": "address",
          "name": "owner",
          "type": "address"
        }
      ],
      "name": "OwnableInvalidOwner",
      "type": "error"
    },
    {
      "inputs": [
        {
          "internalType": "address",
          "name": "account",
          "type": "address"
        }
      ],
      "name": "OwnableUnauthorizedAccount",
      "type": "error"
    },
    {
      "inputs": [],
      "name": "ReentrancyGuardReentrantCall",
      "type": "error"
    },
    {
      "inputs": [
        {
          "internalType": "address",
          "name": "token",
          "type": "address"
        }
      ],
      "name": "SafeERC20FailedOperation",
      "type": "error"
    },
    {
      "inputs": [],
      "name": "Slippage",
      "type": "error"
    },
    {
      "inputs": [],
      "name": "TradingClosed",
      "type": "error"
    },
    {
      "anonymous": false,
      "inputs": [
        {
          "indexed": true,
          "internalType": "uint256",
          "name": "marketId",
          "type": "uint256"
        },
        {
          "indexed": false,
          "internalType": "uint64",
          "name": "closeTime",
          "type": "uint64"
        },
        {
          "indexed": false,
          "internalType": "uint16",
          "name": "feeBps",
          "type": "uint16"
        },
        {
          "indexed": false,
          "internalType": "uint8",
          "name": "outcomeCount",
          "type": "uint8"
        }
      ],
      "name": "MarketRegistered",
      "type": "event"
    },
    {
      "anonymous": false,
      "inputs": [
        {
          "indexed": true,
          "internalType": "uint256",
          "name": "marketId",
          "type": "uint256"
        },
        {
          "indexed": false,
          "internalType": "uint256",
          "name": "winningOutcomeIndex",
          "type": "uint256"
        }
      ],
      "name": "MarketResolved",
      "type": "event"
    },
    {
      "anonymous": false,
      "inputs": [
        {
          "indexed": true,
          "internalType": "address",
          "name": "previousOwner",
          "type": "address"
        },
        {
          "indexed": true,
          "internalType": "address",
          "name": "newOwner",
          "type": "address"
        }
      ],
      "name": "OwnershipTransferred",
      "type": "event"
    },
    {
      "anonymous": false,
      "inputs": [
        {
          "indexed": false,
          "internalType": "address",
          "name": "account",
          "type": "address"
        }
      ],
      "name": "Paused",
      "type": "event"
    },
    {
      "anonymous": false,
      "inputs": [
        {
          "indexed": true,
          "internalType": "address",
          "name": "user",
          "type": "address"
        },
        {
          "indexed": true,
          "internalType": "uint256",
          "name": "marketId",
          "type": "uint256"
        },
        {
          "indexed": true,
          "internalType": "uint256",
          "name": "outcomeIndex",
          "type": "uint256"
        },
        {
          "indexed": false,
          "internalType": "uint8",
          "name": "side",
          "type": "uint8"
        },
        {
          "indexed": false,
          "internalType": "uint256",
          "name": "grossUsdc",
          "type": "uint256"
        },
        {
          "indexed": false,
          "internalType": "uint256",
          "name": "feeUsdc",
          "type": "uint256"
        },
        {
          "indexed": false,
          "internalType": "uint256",
          "name": "netUsdc",
          "type": "uint256"
        },
        {
          "indexed": false,
          "internalType": "int256",
          "name": "sharesDelta",
          "type": "int256"
        },
        {
          "indexed": false,
          "internalType": "uint256",
          "name": "usdcToUser",
          "type": "uint256"
        }
      ],
      "name": "Trade",
      "type": "event"
    },
    {
      "anonymous": false,
      "inputs": [
        {
          "indexed": true,
          "internalType": "address",
          "name": "treasury",
          "type": "address"
        }
      ],
      "name": "TreasuryUpdated",
      "type": "event"
    },
    {
      "anonymous": false,
      "inputs": [
        {
          "indexed": false,
          "internalType": "address",
          "name": "account",
          "type": "address"
        }
      ],
      "name": "Unpaused",
      "type": "event"
    },
    {
      "inputs": [],
      "name": "MAX_OUTCOMES",
      "outputs": [
        {
          "internalType": "uint8",
          "name": "",
          "type": "uint8"
        }
      ],
      "stateMutability": "view",
      "type": "function"
    },
    {
      "inputs": [],
      "name": "SEED_RESERVE",
      "outputs": [
        {
          "internalType": "uint256",
          "name": "",
          "type": "uint256"
        }
      ],
      "stateMutability": "view",
      "type": "function"
    },
    {
      "inputs": [
        {
          "internalType": "uint256",
          "name": "marketId",
          "type": "uint256"
        },
        {
          "internalType": "uint256",
          "name": "outcomeIndex",
          "type": "uint256"
        }
      ],
      "name": "claim",
      "outputs": [],
      "stateMutability": "nonpayable",
      "type": "function"
    },
    {
      "inputs": [
        {
          "internalType": "uint256",
          "name": "",
          "type": "uint256"
        }
      ],
      "name": "markets",
      "outputs": [
        {
          "internalType": "uint64",
          "name": "closeTime",
          "type": "uint64"
        },
        {
          "internalType": "uint16",
          "name": "feeBps",
          "type": "uint16"
        },
        {
          "internalType": "bool",
          "name": "active",
          "type": "bool"
        },
        {
          "internalType": "bool",
          "name": "resolved",
          "type": "bool"
        },
        {
          "internalType": "uint8",
          "name": "outcomeCount",
          "type": "uint8"
        },
        {
          "internalType": "uint256",
          "name": "winningOutcome",
          "type": "uint256"
        }
      ],
      "stateMutability": "view",
      "type": "function"
    },
    {
      "inputs": [
        {
          "internalType": "uint256",
          "name": "",
          "type": "uint256"
        },
        {
          "internalType": "uint256",
          "name": "",
          "type": "uint256"
        },
        {
          "internalType": "address",
          "name": "",
          "type": "address"
        }
      ],
      "name": "noShares",
      "outputs": [
        {
          "internalType": "uint256",
          "name": "",
          "type": "uint256"
        }
      ],
      "stateMutability": "view",
      "type": "function"
    },
    {
      "inputs": [],
      "name": "owner",
      "outputs": [
        {
          "internalType": "address",
          "name": "",
          "type": "address"
        }
      ],
      "stateMutability": "view",
      "type": "function"
    },
    {
      "inputs": [],
      "name": "pause",
      "outputs": [],
      "stateMutability": "nonpayable",
      "type": "function"
    },
    {
      "inputs": [],
      "name": "paused",
      "outputs": [
        {
          "internalType": "bool",
          "name": "",
          "type": "bool"
        }
      ],
      "stateMutability": "view",
      "type": "function"
    },
    {
      "inputs": [
        {
          "internalType": "uint256",
          "name": "marketId",
          "type": "uint256"
        },
        {
          "internalType": "uint64",
          "name": "closeTime",
          "type": "uint64"
        },
        {
          "internalType": "uint16",
          "name": "feeBps",
          "type": "uint16"
        },
        {
          "internalType": "uint8",
          "name": "outcomeCount",
          "type": "uint8"
        }
      ],
      "name": "registerMarket",
      "outputs": [],
      "stateMutability": "nonpayable",
      "type": "function"
    },
    {
      "inputs": [],
      "name": "renounceOwnership",
      "outputs": [],
      "stateMutability": "nonpayable",
      "type": "function"
    },
    {
      "inputs": [
        {
          "internalType": "uint256",
          "name": "",
          "type": "uint256"
        },
        {
          "internalType": "uint256",
          "name": "",
          "type": "uint256"
        }
      ],
      "name": "reserveNo",
      "outputs": [
        {
          "internalType": "uint256",
          "name": "",
          "type": "uint256"
        }
      ],
      "stateMutability": "view",
      "type": "function"
    },
    {
      "inputs": [
        {
          "internalType": "uint256",
          "name": "",
          "type": "uint256"
        },
        {
          "internalType": "uint256",
          "name": "",
          "type": "uint256"
        }
      ],
      "name": "reserveYes",
      "outputs": [
        {
          "internalType": "uint256",
          "name": "",
          "type": "uint256"
        }
      ],
      "stateMutability": "view",
      "type": "function"
    },
    {
      "inputs": [
        {
          "internalType": "uint256",
          "name": "marketId",
          "type": "uint256"
        },
        {
          "internalType": "uint256",
          "name": "winningOutcomeIndex",
          "type": "uint256"
        }
      ],
      "name": "resolveMarket",
      "outputs": [],
      "stateMutability": "nonpayable",
      "type": "function"
    },
    {
      "inputs": [
        {
          "internalType": "address",
          "name": "_treasury",
          "type": "address"
        }
      ],
      "name": "setTreasury",
      "outputs": [],
      "stateMutability": "nonpayable",
      "type": "function"
    },
    {
      "inputs": [
        {
          "internalType": "uint256",
          "name": "marketId",
          "type": "uint256"
        },
        {
          "internalType": "uint256",
          "name": "outcomeIndex",
          "type": "uint256"
        },
        {
          "internalType": "uint8",
          "name": "side",
          "type": "uint8"
        },
        {
          "internalType": "uint256",
          "name": "grossUsdc",
          "type": "uint256"
        },
        {
          "internalType": "uint256",
          "name": "minOut",
          "type": "uint256"
        }
      ],
      "name": "trade",
      "outputs": [],
      "stateMutability": "nonpayable",
      "type": "function"
    },
    {
      "inputs": [
        {
          "internalType": "address",
          "name": "newOwner",
          "type": "address"
        }
      ],
      "name": "transferOwnership",
      "outputs": [],
      "stateMutability": "nonpayable",
      "type": "function"
    },
    {
      "inputs": [],
      "name": "treasury",
      "outputs": [
        {
          "internalType": "address",
          "name": "",
          "type": "address"
        }
      ],
      "stateMutability": "view",
      "type": "function"
    },
    {
      "inputs": [],
      "name": "unpause",
      "outputs": [],
      "stateMutability": "nonpayable",
      "type": "function"
    },
    {
      "inputs": [],
      "name": "usdc",
      "outputs": [
        {
          "internalType": "contract IERC20",
          "name": "",
          "type": "address"
        }
      ],
      "stateMutability": "view",
      "type": "function"
    },
    {
      "inputs": [
        {
          "internalType": "uint256",
          "name": "",
          "type": "uint256"
        },
        {
          "internalType": "uint256",
          "name": "",
          "type": "uint256"
        },
        {
          "internalType": "address",
          "name": "",
          "type": "address"
        }
      ],
      "name": "yesShares",
      "outputs": [
        {
          "internalType": "uint256",
          "name": "",
          "type": "uint256"
        }
      ],
      "stateMutability": "view",
      "type": "function"
    }
  ],
  "bytecode": "0x60a03461011857601f61151f38819003918201601f19168301916001600160401b0383118484101761011d5780849260409485528339810103126101185780516001600160a01b039182821682036101185760200151908282168092036101185733156100ff5760005460405193339082167f8be0079c531659141344cd1fd0a4f28419497f9722a3daafe3b4186f6b6457e0600080a36001600160a81b0319163360ff60a01b19161760005560018055608052600280546001600160a01b0319169190911790556113eb908161013482396080518181816101ca015281816105920152818161092501528181610cfa01528181610e990152610ed10152f35b604051631e4fbdf760e01b815260006004820152602490fd5b600080fd5b634e487b7160e01b600052604160045260246000fdfe6080604081815260048036101561001557600080fd5b600092833560e01c90816321f3a30b14610954575080633e413bee146109105780633f4ba83a146108a35780635c975abb1461087e57806360557333146107c757806361d027b31461079e578063715018a6146107445780638456cb59146106e55780638da5cb5b146106bd578063a009b5b81461067f578063b1283e7714610610578063bdde724b146105e4578063c34902631461050f578063cdea1fcd146104f0578063dc73d164146104d4578063f0f4426014610469578063f2fde38b146103e3578063fbc96d2b14610392578063fde43ae61461012d5763ff48dd3f146100ff57600080fd5b34610129576020928291610112366109d4565b919083528552828220908252845220549051908152f35b8280fd5b5090346101295760803660031901126101295781359160249182359267ffffffffffffffff80851680950361038e576044359161ffff831680930361038a576064359460ff8616809603610386576101836109ea565b8515801561037d575b61036f578789526020926003845260ff868b205460501c16610360576107d08511610351576377359400878102908104880361033f576101ee9030337f0000000000000000000000000000000000000000000000000000000000000000610a60565b85519060c082018281108282111761032d57918a939188959386528a8252868d8b828501918b835289860160019a8b968783528160608a019480865260808b0196875260a08b01986000199e8f8b52825260039052209851169088549551901b69ffff0000000000000000169160ff60501b9051151560501b169260ff60581b9051151560581b169360ff60601b905160601b16946cffffffffffffffffffffffffff191617171717178355519101558a5b8881106102e0578b8b7fcefdd67fa9c983c49efc5ad6ff873ebf0f3da37414be8fd0775834cd4e16924360608d8d8d8d8d8251948552840152820152a280f35b8a8c52818652878c20818d528652878c20633b9aca00908190558b8d5260058752888d20828e528752888d205583811461031b5784016102a0565b50634e487b7160e01b8b526011905289fd5b634e487b7160e01b8c5260418452848cfd5b634e487b7160e01b8b5260118352838bfd5b50845163cd4e616760e01b8152fd5b5084516357cb452560e01b8152fd5b845163900d8abd60e01b8152fd5b5084861161018c565b8880fd5b8780fd5b8680fd5b8382346103df5760a03660031901126103df5760443560ff81168103610129576103d8916103be610fd1565b6103c6610a16565b60843591606435916024359035610c45565b6001805580f35b5080fd5b5034610129576020366003190112610129576103fd61098f565b906104066109ea565b6001600160a01b0391821692831561045357505082546001600160a01b0319811683178455167f8be0079c531659141344cd1fd0a4f28419497f9722a3daafe3b4186f6b6457e08380a380f35b51631e4fbdf760e01b8152908101849052602490fd5b83346104d15760203660031901126104d15761048361098f565b61048b6109ea565b600280546001600160a01b0319166001600160a01b039290921691821790557f7dae230f18360d76a040c81f050aa14eb9d6dc7901b20fc5d855e2a20fe814d18280a280f35b80fd5b5050346103df57816003193601126103df578060209151908152f35b5050346103df57816003193601126103df5760209051633b9aca008152f35b5090346101295761051f366109d4565b610527610fd1565b8185526020916003835283862060ff815460581c16156105d4576001015482036105c4578086526006835283862082875283528386203387528352838620549485156105b6575085526006825282852090855281528184203380865291529083208390556103d891907f0000000000000000000000000000000000000000000000000000000000000000610f81565b8451633999656760e01b8152fd5b5050505163900d8abd60e01b8152fd5b84516357cb452560e01b81528690fd5b5050346103df57806020926105f8366109d4565b90825260058552828220908252845220549051908152f35b50346101295760203660031901126101295760c092829135815260036020522060ff600182549201549183519367ffffffffffffffff8216855261ffff82821c166020860152828260501c16151590850152818160581c161515606085015260601c16608083015260a0820152f35b5050346103df5780602092610693366109aa565b9183526007865283832090835285528282206001600160a01b039091168252845220549051908152f35b5050346103df57816003193601126103df57905490516001600160a01b039091168152602090f35b5050346103df57816003193601126103df5760207f62e78cea01bee320cd4e420270b5ea74000d11b0c9f74754ebdbfc544b05a258916107236109ea565b61072b610a16565b835460ff60a01b1916600160a01b17845551338152a180f35b83346104d157806003193601126104d15761075d6109ea565b80546001600160a01b03198116825581906001600160a01b03167f8be0079c531659141344cd1fd0a4f28419497f9722a3daafe3b4186f6b6457e08280a380f35b5050346103df57816003193601126103df5760025490516001600160a01b039091168152602090f35b509034610129576107d7366109d4565b9190926107e26109ea565b83855260036020528185209081549060ff8260501c16158015610871575b6108635760ff8260601c16851015610855575060ff60581b1916600160581b178155600101829055519081527f6dfc24f0f2fb42e49fb4fa3ffa8abb148cab908a1fb8335b3f128a08b2594af190602090a280f35b835163900d8abd60e01b8152fd5b83516357cb452560e01b8152fd5b5060ff8260581c16610800565b5050346103df57816003193601126103df5760ff6020925460a01c1690519015158152f35b50346101295782600319360112610129576108bc6109ea565b82549060ff8260a01c1615610902575060ff60a01b19168255513381527f5db9ee0a495bf2e6ff9c91a7834c1ba4fdd244a5e8aa4e537bd38aeae4b073aa90602090a180f35b8251638dfc202b60e01b8152fd5b5050346103df57816003193601126103df57517f00000000000000000000000000000000000000000000000000000000000000006001600160a01b03168152602090f35b8490843461012957602092610968366109aa565b9183526006865283832090835285528282206001600160a01b039091168252845220548152f35b600435906001600160a01b03821682036109a557565b600080fd5b60609060031901126109a55760043590602435906044356001600160a01b03811681036109a55790565b60409060031901126109a5576004359060243590565b6000546001600160a01b031633036109fe57565b60405163118cdaa760e01b8152336004820152602490fd5b60ff60005460a01c16610a2557565b60405163d93c066560e01b8152600490fd5b81810292918115918404141715610a4a57565b634e487b7160e01b600052601160045260246000fd5b6040516323b872dd60e01b60208201526001600160a01b03928316602482015292909116604483015260648083019390935291815260a081019181831067ffffffffffffffff841117610abb57610ab992604052610ad1565b565b634e487b7160e01b600052604160045260246000fd5b60018060a01b031690600080826020829451910182865af13d15610bb85767ffffffffffffffff903d828111610ba45760405192601f8201601f19908116603f0116840190811184821017610b90576040528252610b3891903d84602084013e5b84610bc4565b908151918215159283610b68575b505050610b505750565b60249060405190635274afe760e01b82526004820152fd5b8192935090602091810103126103df5760200151908115918215036104d15750388080610b46565b634e487b7160e01b85526041600452602485fd5b634e487b7160e01b84526041600452602484fd5b610b3890606090610b32565b90610beb5750805115610bd957805190602001fd5b604051630a12f52160e11b8152600490fd5b81511580610c1e575b610bfc575090565b604051639996b31560e01b81526001600160a01b039091166004820152602490fd5b50803b15610bf4565b91908203918211610a4a57565b600160ff1b8114610a4a5760000390565b92919093600091848352602090600382526040808520549560ff8760501c16158015610f74575b610f635767ffffffffffffffff8716421015610f525760ff8760601c16891015610f41578015610f305760ff83169660038811610f1f57821c61ffff1693610cb48583610ff4565b93610cbf8584610c27565b8a8952600483528489208c8a528352848920548b8a5260058452858a208d8b528452858a2054919760028c1015610e14575082610d3b9289927f0000000000000000000000000000000000000000000000000000000000000000610d2589303384610a60565b8a80151580610e00575b610de1575b5050611111565b98909190898b8112610dd3575b10610dc2578b8a5260048452858a208d8b528452858a20558a8952600583528489208c8a52835284892055610d809087908c8c611261565b82519788528701528501526060840152608083015260a08201527fdb99a04c40c0a9629c05261eab6b70dda96a2d41cbf51a537abdf8350af9487860c03392a4565b85516307dd37f760e41b8152600490fd5b610ddc90610c34565b610d48565b600254610df9926001600160a01b0390911690610f81565b388a610d34565b506002546001600160a01b03161515610d2f565b9650909889610e4a610e43610e3c8b610e32889e9f8983918a611111565b9f919690986111fe565b998a610ff4565b8099610c27565b9a8b10610f0e578c8252600485528682208e83528552868220558b8152600584528581208d8252845285902055610e849087908c8c611261565b83151580610efa575b610ebd575b610d8087337f0000000000000000000000000000000000000000000000000000000000000000610f81565b600254610ef59085906001600160a01b03167f0000000000000000000000000000000000000000000000000000000000000000610f81565b610e92565b506002546001600160a01b03161515610e8d565b86516307dd37f760e41b8152600490fd5b825163479b91f560e11b8152600490fd5b815163749b593960e01b8152600490fd5b815163900d8abd60e01b8152600490fd5b815163e2c865df60e01b8152600490fd5b81516357cb452560e01b8152600490fd5b5060ff8760581c16610c6c565b60405163a9059cbb60e01b60208201526001600160a01b039092166024830152604480830193909352918152608081019167ffffffffffffffff831182841017610abb57610ab992604052610ad1565b600260015414610fe2576002600155565b604051633ee5aeb560e01b8152600490fd5b908082029060001981840990828083109203918083039214611064576127109082821115611052577fbc01a36e2eb1c432ca57a786c226809d495182a9930be0ded288ce703afb7e91940990828211900360fc1b910360041c170290565b60405163227bc15360e01b8152600490fd5b505061271091500490565b60001960018209918180841093039280840393146110e2578281111561105257806001830981600003821680920460028082600302188083028203028083028203028083028203028083028203028083028203028092029003029360018380600003040190848311900302920304170290565b809250156110ee570490565b634e487b7160e01b600052601260045260246000fd5b91908201809211610a4a57565b929093919360ff6111228286610a37565b951680156111dd57600181146111c55760028114611199576003146111535760405163479b91f560e11b8152600490fd5b808210156111875761117561116e6111819361117c93610c27565b809661106f565b9384610c27565b610c34565b91929190565b60405163749b593960e01b8152600490fd5b50939280821015611187576111be6111b76111819361117c93610c27565b809561106f565b9485610c27565b506111b7611181926111d692611104565b8093610c27565b5093926111f0611181926111f792611104565b809461106f565b8094610c27565b9192909260ff61120e8585610a37565b91166002811461124f576003146112315760405163479b91f560e11b8152600490fd5b6112416112479261124c95610c27565b9061106f565b610c27565b90565b506112416112479261124c9594610c27565b9160ff168061129b5750611297916040916000918252600660205282822090825260205281812033825260205220918254611104565b9055565b600181036112d05750611297916040916000918252600760205282822090825260205281812033825260205220918254611104565b91939290916002810361134657506112e790610c34565b90600084815260206006815260409283832081845282528383203384528252848484205410611335576112979495968352600682528383209083528152828220903383525220918254610c27565b8351633999656760e01b8152600490fd5b600314611354575b50509050565b61135d90610c34565b90600084815260206007815260409283832081845282528383203384528252848484205410611335576113ab9495968352600782528383209083528152828220903383525220918254610c27565b905580388061134e56fea26469706673582212203b59c98393c090f245e60455d376c8c8911d34d313be44102e54b788013c896564736f6c63430008140033",
  "linkReferences": {},
  "deployedLinkReferences": {}
}