{
  "_format": "hh-sol-artifact-1",
  "contractName": "ChaosParimutuelMarket",
  "sourceName": "contracts/contracts/ChaosParimutuelMarket.sol",
  "abi": [
    {
      "inputs": [
        {
          "internalType": "contract IERC20",
          "name": "_usdc",
          "type": "address"
        },
        {
          "internalType": "address",
          "name": "_treasury",
          "type": "address"
        }
      ],
      "stateMutability": "nonpayable",
      "type": "constructor"
    },
    {
      "inputs": [
        {
          "internalType": "address",
          "name": "target",
          "type": "address"
        }
      ],
      "name": "AddressEmptyCode",
      "type": "error"
    },
    {
      "inputs": [
        {
          "internalType": "address",
          "name": "account",
          "type": "address"
        }
      ],
      "name": "AddressInsufficientBalance",
      "type": "error"
    },
    {
      "inputs": [],
      "name": "BadAmount",
      "type": "error"
    },
    {
      "inputs": [],
      "name": "BadMarket",
      "type": "error"
    },
    {
      "inputs": [],
      "name": "BadOutcome",
      "type": "error"
    },
    {
      "inputs": [],
      "name": "EnforcedPause",
      "type": "error"
    },
    {
      "inputs": [],
      "name": "ExpectedPause",
      "type": "error"
    },
    {
      "inputs": [],
      "name": "FailedInnerCall",
      "type": "error"
    },
    {
      "inputs": [],
      "name": "FeeTooHigh",
      "type": "error"
    },
    {
      "inputs": [],
      "name": "MathOverflowedMulDiv",
      "type": "error"
    },
    {
      "inputs": [],
      "name": "NoWinningStake",
      "type": "error"
    },
    {
      "inputs": [],
      "name": "NothingToClaim",
      "type": "error"
    },
    {
      "inputs": [],
      "name": "NothingToExit",
      "type": "error"
    },
    {
      "inputs": [
        {
          "internalType": "address",
          "name": "owner",
          "type": "address"
        }
      ],
      "name": "OwnableInvalidOwner",
      "type": "error"
    },
    {
      "inputs": [
        {
          "internalType": "address",
          "name": "account",
          "type": "address"
        }
      ],
      "name": "OwnableUnauthorizedAccount",
      "type": "error"
    },
    {
      "inputs": [],
      "name": "ReentrancyGuardReentrantCall",
      "type": "error"
    },
    {
      "inputs": [
        {
          "internalType": "address",
          "name": "token",
          "type": "address"
        }
      ],
      "name": "SafeERC20FailedOperation",
      "type": "error"
    },
    {
      "inputs": [],
      "name": "TradingClosed",
      "type": "error"
    },
    {
      "anonymous": false,
      "inputs": [
        {
          "indexed": true,
          "internalType": "address",
          "name": "user",
          "type": "address"
        },
        {
          "indexed": true,
          "internalType": "uint256",
          "name": "marketId",
          "type": "uint256"
        },
        {
          "indexed": false,
          "internalType": "uint256",
          "name": "outcomeIndex",
          "type": "uint256"
        },
        {
          "indexed": false,
          "internalType": "uint256",
          "name": "grossUsdc",
          "type": "uint256"
        },
        {
          "indexed": false,
          "internalType": "uint256",
          "name": "feeUsdc",
          "type": "uint256"
        },
        {
          "indexed": false,
          "internalType": "uint256",
          "name": "netUsdc",
          "type": "uint256"
        }
      ],
      "name": "BetPlaced",
      "type": "event"
    },
    {
      "anonymous": false,
      "inputs": [
        {
          "indexed": true,
          "internalType": "address",
          "name": "user",
          "type": "address"
        },
        {
          "indexed": true,
          "internalType": "uint256",
          "name": "marketId",
          "type": "uint256"
        },
        {
          "indexed": false,
          "internalType": "uint256",
          "name": "outcomeIndex",
          "type": "uint256"
        },
        {
          "indexed": false,
          "internalType": "uint256",
          "name": "amount",
          "type": "uint256"
        }
      ],
      "name": "Claimed",
      "type": "event"
    },
    {
      "anonymous": false,
      "inputs": [
        {
          "indexed": true,
          "internalType": "uint256",
          "name": "marketId",
          "type": "uint256"
        },
        {
          "indexed": false,
          "internalType": "uint64",
          "name": "closeTime",
          "type": "uint64"
        },
        {
          "indexed": false,
          "internalType": "uint16",
          "name": "feeBps",
          "type": "uint16"
        },
        {
          "indexed": false,
          "internalType": "uint8",
          "name": "outcomeCount",
          "type": "uint8"
        }
      ],
      "name": "MarketRegistered",
      "type": "event"
    },
    {
      "anonymous": false,
      "inputs": [
        {
          "indexed": true,
          "internalType": "uint256",
          "name": "marketId",
          "type": "uint256"
        },
        {
          "indexed": false,
          "internalType": "uint256",
          "name": "winningOutcomeIndex",
          "type": "uint256"
        }
      ],
      "name": "MarketResolved",
      "type": "event"
    },
    {
      "anonymous": false,
      "inputs": [
        {
          "indexed": true,
          "internalType": "address",
          "name": "previousOwner",
          "type": "address"
        },
        {
          "indexed": true,
          "internalType": "address",
          "name": "newOwner",
          "type": "address"
        }
      ],
      "name": "OwnershipTransferred",
      "type": "event"
    },
    {
      "anonymous": false,
      "inputs": [
        {
          "indexed": false,
          "internalType": "address",
          "name": "account",
          "type": "address"
        }
      ],
      "name": "Paused",
      "type": "event"
    },
    {
      "anonymous": false,
      "inputs": [
        {
          "indexed": true,
          "internalType": "address",
          "name": "user",
          "type": "address"
        },
        {
          "indexed": true,
          "internalType": "uint256",
          "name": "marketId",
          "type": "uint256"
        },
        {
          "indexed": false,
          "internalType": "uint256",
          "name": "outcomeIndex",
          "type": "uint256"
        },
        {
          "indexed": false,
          "internalType": "uint256",
          "name": "netUsdcReturned",
          "type": "uint256"
        }
      ],
      "name": "StakeExited",
      "type": "event"
    },
    {
      "anonymous": false,
      "inputs": [
        {
          "indexed": true,
          "internalType": "address",
          "name": "treasury",
          "type": "address"
        }
      ],
      "name": "TreasuryUpdated",
      "type": "event"
    },
    {
      "anonymous": false,
      "inputs": [
        {
          "indexed": true,
          "internalType": "address",
          "name": "to",
          "type": "address"
        },
        {
          "indexed": false,
          "internalType": "uint256",
          "name": "amount",
          "type": "uint256"
        }
      ],
      "name": "USDCRescued",
      "type": "event"
    },
    {
      "anonymous": false,
      "inputs": [
        {
          "indexed": false,
          "internalType": "address",
          "name": "account",
          "type": "address"
        }
      ],
      "name": "Unpaused",
      "type": "event"
    },
    {
      "inputs": [],
      "name": "MAX_OUTCOMES",
      "outputs": [
        {
          "internalType": "uint8",
          "name": "",
          "type": "uint8"
        }
      ],
      "stateMutability": "view",
      "type": "function"
    },
    {
      "inputs": [
        {
          "internalType": "uint256",
          "name": "marketId",
          "type": "uint256"
        },
        {
          "internalType": "uint256",
          "name": "outcomeIndex",
          "type": "uint256"
        },
        {
          "internalType": "uint256",
          "name": "grossUsdc",
          "type": "uint256"
        }
      ],
      "name": "bet",
      "outputs": [],
      "stateMutability": "nonpayable",
      "type": "function"
    },
    {
      "inputs": [
        {
          "internalType": "uint256",
          "name": "marketId",
          "type": "uint256"
        }
      ],
      "name": "claim",
      "outputs": [],
      "stateMutability": "nonpayable",
      "type": "function"
    },
    {
      "inputs": [
        {
          "internalType": "uint256",
          "name": "marketId",
          "type": "uint256"
        },
        {
          "internalType": "uint256",
          "name": "outcomeIndex",
          "type": "uint256"
        }
      ],
      "name": "exitStake",
      "outputs": [],
      "stateMutability": "nonpayable",
      "type": "function"
    },
    {
      "inputs": [
        {
          "internalType": "uint256",
          "name": "",
          "type": "uint256"
        }
      ],
      "name": "markets",
      "outputs": [
        {
          "internalType": "uint64",
          "name": "closeTime",
          "type": "uint64"
        },
        {
          "internalType": "uint16",
          "name": "feeBps",
          "type": "uint16"
        },
        {
          "internalType": "bool",
          "name": "active",
          "type": "bool"
        },
        {
          "internalType": "bool",
          "name": "resolved",
          "type": "bool"
        },
        {
          "internalType": "uint8",
          "name": "outcomeCount",
          "type": "uint8"
        },
        {
          "internalType": "uint256",
          "name": "winningOutcome",
          "type": "uint256"
        }
      ],
      "stateMutability": "view",
      "type": "function"
    },
    {
      "inputs": [],
      "name": "owner",
      "outputs": [
        {
          "internalType": "address",
          "name": "",
          "type": "address"
        }
      ],
      "stateMutability": "view",
      "type": "function"
    },
    {
      "inputs": [],
      "name": "pause",
      "outputs": [],
      "stateMutability": "nonpayable",
      "type": "function"
    },
    {
      "inputs": [],
      "name": "paused",
      "outputs": [
        {
          "internalType": "bool",
          "name": "",
          "type": "bool"
        }
      ],
      "stateMutability": "view",
      "type": "function"
    },
    {
      "inputs": [
        {
          "internalType": "uint256",
          "name": "marketId",
          "type": "uint256"
        },
        {
          "internalType": "uint64",
          "name": "closeTime",
          "type": "uint64"
        },
        {
          "internalType": "uint16",
          "name": "feeBps",
          "type": "uint16"
        },
        {
          "internalType": "uint8",
          "name": "outcomeCount",
          "type": "uint8"
        }
      ],
      "name": "registerMarket",
      "outputs": [],
      "stateMutability": "nonpayable",
      "type": "function"
    },
    {
      "inputs": [],
      "name": "renounceOwnership",
      "outputs": [],
      "stateMutability": "nonpayable",
      "type": "function"
    },
    {
      "inputs": [
        {
          "internalType": "address",
          "name": "to",
          "type": "address"
        },
        {
          "internalType": "uint256",
          "name": "amount",
          "type": "uint256"
        }
      ],
      "name": "rescueUSDC",
      "outputs": [],
      "stateMutability": "nonpayable",
      "type": "function"
    },
    {
      "inputs": [
        {
          "internalType": "uint256",
          "name": "marketId",
          "type": "uint256"
        },
        {
          "internalType": "uint256",
          "name": "winningOutcomeIndex",
          "type": "uint256"
        }
      ],
      "name": "resolveMarket",
      "outputs": [],
      "stateMutability": "nonpayable",
      "type": "function"
    },
    {
      "inputs": [
        {
          "internalType": "uint256",
          "name": "",
          "type": "uint256"
        }
      ],
      "name": "resolvedPoolSnapshot",
      "outputs": [
        {
          "internalType": "uint256",
          "name": "",
          "type": "uint256"
        }
      ],
      "stateMutability": "view",
      "type": "function"
    },
    {
      "inputs": [
        {
          "internalType": "uint256",
          "name": "",
          "type": "uint256"
        }
      ],
      "name": "resolvedWinningStakeSnapshot",
      "outputs": [
        {
          "internalType": "uint256",
          "name": "",
          "type": "uint256"
        }
      ],
      "stateMutability": "view",
      "type": "function"
    },
    {
      "inputs": [
        {
          "internalType": "address",
          "name": "_treasury",
          "type": "address"
        }
      ],
      "name": "setTreasury",
      "outputs": [],
      "stateMutability": "nonpayable",
      "type": "function"
    },
    {
      "inputs": [
        {
          "internalType": "uint256",
          "name": "",
          "type": "uint256"
        },
        {
          "internalType": "uint256",
          "name": "",
          "type": "uint256"
        },
        {
          "internalType": "address",
          "name": "",
          "type": "address"
        }
      ],
      "name": "stakeOf",
      "outputs": [
        {
          "internalType": "uint256",
          "name": "",
          "type": "uint256"
        }
      ],
      "stateMutability": "view",
      "type": "function"
    },
    {
      "inputs": [
        {
          "internalType": "uint256",
          "name": "",
          "type": "uint256"
        }
      ],
      "name": "totalPool",
      "outputs": [
        {
          "internalType": "uint256",
          "name": "",
          "type": "uint256"
        }
      ],
      "stateMutability": "view",
      "type": "function"
    },
    {
      "inputs": [
        {
          "internalType": "uint256",
          "name": "",
          "type": "uint256"
        },
        {
          "internalType": "uint256",
          "name": "",
          "type": "uint256"
        }
      ],
      "name": "totalStakeOnOutcome",
      "outputs": [
        {
          "internalType": "uint256",
          "name": "",
          "type": "uint256"
        }
      ],
      "stateMutability": "view",
      "type": "function"
    },
    {
      "inputs": [
        {
          "internalType": "address",
          "name": "newOwner",
          "type": "address"
        }
      ],
      "name": "transferOwnership",
      "outputs": [],
      "stateMutability": "nonpayable",
      "type": "function"
    },
    {
      "inputs": [],
      "name": "treasury",
      "outputs": [
        {
          "internalType": "address",
          "name": "",
          "type": "address"
        }
      ],
      "stateMutability": "view",
      "type": "function"
    },
    {
      "inputs": [],
      "name": "unpause",
      "outputs": [],
      "stateMutability": "nonpayable",
      "type": "function"
    },
    {
      "inputs": [],
      "name": "usdc",
      "outputs": [
        {
          "internalType": "contract IERC20",
          "name": "",
          "type": "address"
        }
      ],
      "stateMutability": "view",
      "type": "function"
    }
  ],
  "bytecode": "0x60a03461011157601f6112ba38819003918201601f19168301916001600160401b038311848410176101165780849260409485528339810103126101115780516001600160a01b039182821682036101115760200151908282168092036101115733156100f85760005460405193339082167f8be0079c531659141344cd1fd0a4f28419497f9722a3daafe3b4186f6b6457e0600080a36001600160a81b0319163360ff60a01b19161760005560018055608052600280546001600160a01b03191691909117905561118d908161012d823960805181818161053b0152818161079d01528181610ad101528181610bcd0152610d200152f35b604051631e4fbdf760e01b815260006004820152602490fd5b600080fd5b634e487b7160e01b600052604160045260246000fdfe60406080815260048036101561001457600080fd5b600091823560e01c8063148a398d14610c20578063379607f514610b005780633e413bee14610abc5780633f4ba83a14610a635780634ec76cd514610a375780635c975abb14610a12578063605573331461091557806361d027b3146108ec57806365ce1372146108c4578063715018a61461086a5780638456cb591461080b5780638da5cb5b146107e357806390254e6614610722578063b1283e77146106b2578063bfc5482214610480578063c8aa53591461042b578063d1f8774b14610403578063dc73d164146103e3578063e310c668146103bb578063f0f4426014610350578063f2fde38b146102c95763fde43ae61461011257600080fd5b346102c55760803660031901126102c5578135916024359167ffffffffffffffff918284168094036102c1576044359061ffff82168092036102bd576064359360ff85168095036102b957610165610dc2565b841580156102b0575b6102a157868852600360205260ff8489205460501c16610292576107d083116102835783519160c083019083821083831117610270575091600188606097959387957fcefdd67fa9c983c49efc5ad6ff873ebf0f3da37414be8fd0775834cd4e1692439a98528784528b60208501918683528786018581528b8701918383528960808901948c865260a08a01976000198952815260036020522097511669ffff0000000000000000885495518b1b169160ff60501b9051151560501b169260ff60581b9051151560581b169360ff8e1b90518e1b16946cffffffffffffffffffffffffff1916171717171783555191015581519384526020840152820152a280f35b634e487b7160e01b8a5260419052602489fd5b50825163cd4e616760e01b8152fd5b5082516357cb452560e01b8152fd5b50825163900d8abd60e01b8152fd5b5083851161016e565b8780fd5b8680fd5b8580fd5b8280fd5b5090346102c55760203660031901126102c5576102e4610dac565b906102ed610dc2565b6001600160a01b0391821692831561033a57505082546001600160a01b0319811683178455167f8be0079c531659141344cd1fd0a4f28419497f9722a3daafe3b4186f6b6457e08380a380f35b51631e4fbdf760e01b8152908101849052602490fd5b83346103b85760203660031901126103b85761036a610dac565b610372610dc2565b600280546001600160a01b0319166001600160a01b039290921691821790557f7dae230f18360d76a040c81f050aa14eb9d6dc7901b20fc5d855e2a20fe814d18280a280f35b80fd5b5090346102c55760203660031901126102c55760209282913581526007845220549051908152f35b8382346103ff57816003193601126103ff578060209151908152f35b5080fd5b5090346102c55760203660031901126102c55760209282913581526006845220549051908152f35b5090346102c55760603660031901126102c5576044356001600160a01b038116919082900361047c579282916020943582526005855282822060243583528552828220908252845220549051908152f35b8380fd5b5090346102c55760603660031901126102c55780359160243591604435916104a661101f565b6104ae610dee565b84865260209260038452818720549360ff8560501c161580156106a5575b6106965767ffffffffffffffff948581164210156106865760ff8160601c168710156106765782156106665761ffff61050891851c1683611042565b936105138584610e31565b84516323b872dd60e01b848201523360248201523060448201526064808201869052815290967f0000000000000000000000000000000000000000000000000000000000000000919060a08201908111828210176106535786526105779082610ec9565b858015158061063f575b610620575b505087895260058252838920878a528252838920338a5282528389206105ad878254610e54565b9055878952815282882086895281528288206105ca868254610e54565b9055868852600681528288206105e1868254610e54565b9055825195865285015283015260608201527fce4169502e4ec788f06e096a7c876ac9e3c1102bdc6cb2089a3b41e0a7f5945060803392a36001805580f35b600254610638926001600160a01b0390911690610e61565b3885610586565b506002546001600160a01b03161515610581565b634e487b7160e01b8c526041845260248cfd5b5050505163749b593960e01b8152fd5b5050505163900d8abd60e01b8152fd5b5050505163e2c865df60e01b8152fd5b5050516357cb452560e01b8152fd5b5060ff8560581c166104cc565b5090346102c55760203660031901126102c55760c092829135815260036020522060ff600182549201549183519367ffffffffffffffff8216855261ffff82821c166020860152828260501c16151590850152818160581c161515606085015260601c16608083015260a0820152f35b50346102c557806003193601126102c55761073b610dac565b9060243591610748610dc2565b610750610e0f565b61075861101f565b6001600160a01b03811693841580156107db575b6107cd5750916020916107c1827f7193770294da978211fb2f5c00fad9a7d7aa5422ffe5b094729e46b2486bb36d957f0000000000000000000000000000000000000000000000000000000000000000610e61565b51908152a26001805580f35b825163749b593960e01b8152fd5b50831561076c565b8382346103ff57816003193601126103ff57905490516001600160a01b039091168152602090f35b8382346103ff57816003193601126103ff5760207f62e78cea01bee320cd4e420270b5ea74000d11b0c9f74754ebdbfc544b05a25891610849610dc2565b610851610dee565b835460ff60a01b1916600160a01b17845551338152a180f35b83346103b857806003193601126103b857610883610dc2565b80546001600160a01b03198116825581906001600160a01b03167f8be0079c531659141344cd1fd0a4f28419497f9722a3daafe3b4186f6b6457e08280a380f35b5090346102c55760203660031901126102c55760209282913581526008845220549051908152f35b8382346103ff57816003193601126103ff5760025490516001600160a01b039091168152602090f35b508290346103ff5761092636610d91565b610931929192610dc2565b8284526020916003835280852095865460ff8160501c16158015610a05575b6109f65760ff8160601c168410156109e7578587526006855282872054908286528388208589528652838820549283156109d9575060017f6dfc24f0f2fb42e49fb4fa3ffa8abb148cab908a1fb8335b3f128a08b2594af197989986928260581b9060ff60581b191617815501558688526007855282882055600884528187205551908152a280f35b84516342edd2e160e11b8152fd5b50905163900d8abd60e01b8152fd5b5090516357cb452560e01b8152fd5b5060ff8160581c16610950565b8382346103ff57816003193601126103ff5760ff6020925460a01c1690519015158152f35b5090346102c5576020928291610a4c36610d91565b919083528552828220908252845220549051908152f35b8382346103ff57816003193601126103ff5760207f5db9ee0a495bf2e6ff9c91a7834c1ba4fdd244a5e8aa4e537bd38aeae4b073aa91610aa1610dc2565b610aa9610e0f565b835460ff60a01b1916845551338152a180f35b8382346103ff57816003193601126103ff57517f00000000000000000000000000000000000000000000000000000000000000006001600160a01b03168152602090f35b5090346102c5576020918260031936011261047c57813592610b2061101f565b83855260038152818520805460ff8160501c1615908115610c11575b50610696576001015492848652600582528286208487528252828620338752825282862054908115610c03575090610ba97f9cdcf2f7714cca3508c7f0110b04a90a80a3a8dd0e35de99689db74d28c5383e939286885260078352838820546008845284892054916110bd565b9085875260058152828720858852815282872033885281528683812055610bf182337f0000000000000000000000000000000000000000000000000000000000000000610e61565b82519485528401523392a36001805580f35b83516312d37ee560e31b8152fd5b60ff915060581c161538610b3c565b508290346103ff57610c3136610d91565b9091610c3b61101f565b610c43610dee565b8284526020600381528185205460ff8160501c16158015610d84575b610d745767ffffffffffffffff8116421015610d645760601c60ff16831015610d5457838552600581528185208386528152818520338652815281852054908115610d44578596857f605c5436749dee9182b13cd6e9161148ea548a93204ebca5a0a4f31b4b61555b959697526005825283882086895282528388203389528252878481205586885281528287208588528152828720610d00838254610e31565b905585875260068152828720610d17838254610e31565b9055610bf182337f0000000000000000000000000000000000000000000000000000000000000000610e61565b825163250f90c760e21b81528790fd5b815163900d8abd60e01b81528690fd5b825163e2c865df60e01b81528790fd5b82516357cb452560e01b81528790fd5b5060ff8160581c16610c5f565b6040906003190112610da7576004359060243590565b600080fd5b600435906001600160a01b0382168203610da757565b6000546001600160a01b03163303610dd657565b60405163118cdaa760e01b8152336004820152602490fd5b60ff60005460a01c16610dfd57565b60405163d93c066560e01b8152600490fd5b60ff60005460a01c1615610e1f57565b604051638dfc202b60e01b8152600490fd5b91908203918211610e3e57565b634e487b7160e01b600052601160045260246000fd5b91908201809211610e3e57565b60405163a9059cbb60e01b60208201526001600160a01b039092166024830152604480830193909352918152608081019167ffffffffffffffff831182841017610eb357610eb192604052610ec9565b565b634e487b7160e01b600052604160045260246000fd5b60018060a01b031690600080826020829451910182865af13d15610fb05767ffffffffffffffff903d828111610f9c5760405192601f8201601f19908116603f0116840190811184821017610f88576040528252610f3091903d84602084013e5b84610fbc565b908151918215159283610f60575b505050610f485750565b60249060405190635274afe760e01b82526004820152fd5b8192935090602091810103126103ff5760200151908115918215036103b85750388080610f3e565b634e487b7160e01b85526041600452602485fd5b634e487b7160e01b84526041600452602484fd5b610f3090606090610f2a565b90610fe35750805115610fd157805190602001fd5b604051630a12f52160e11b8152600490fd5b81511580611016575b610ff4575090565b604051639996b31560e01b81526001600160a01b039091166004820152602490fd5b50803b15610fec565b600260015414611030576002600155565b604051633ee5aeb560e01b8152600490fd5b9080820290600019818409908280831092039180830392146110b25761271090828211156110a0577fbc01a36e2eb1c432ca57a786c226809d495182a9930be0ded288ce703afb7e91940990828211900360fc1b910360041c170290565b60405163227bc15360e01b8152600490fd5b505061271091500490565b9091828202916000198482099383808610950394808603951461113357848311156110a05782910981600003821680920460028082600302188083028203028083028203028083028203028083028203028083028203028092029003029360018380600003040190848311900302920304170290565b505080925015611141570490565b634e487b7160e01b600052601260045260246000fdfea264697066735822122018ad4b7669da75ae20212348cd0e665a6f740efb0db1f841ae2b5fad2e9c18ad64736f6c63430008140033",
  "linkReferences": {},
  "deployedLinkReferences": {}
}